:1000000000800020BD010000151F0000CD1E000073
:10001000CD1E0000CD1E0000CD1E0000CD1E000034
:10002000CD1E0000CD1E0000CD1E0000151F0000DB
:10003000151F0000CD1E0000151F0000BD1E000092
:10004000151F0000151F0000151F0000151F0000E0
:10005000151F0000151F0000151F0000151F0000D0
:10006000151F0000151F0000151F0000151F0000C0
:10007000151F0000151F0000151F0000151F0000B0
:10008000151F0000151F0000151F0000151F0000A0
:10009000151F0000151F0000151F0000151F000090
:1000A000151F0000151F0000151F0000151F000080
:1000B000151F0000151F0000151F0000151F000070
:1000C000151F0000151F0000151F0000151F000060
:1000D000151F0000151F0000151F0000151F000050
:1000E000151F0000151F0000151F0000151F000040
:1000F000151F0000F10A0000151F00004D1200003E
:10010000151F0000C9170000151F0000151F000073
:10011000151F0000151F0000151F0000151F00000F
:10012000151F0000151F0000151F0000151F0000FF
:10013000151F0000151F0000151F0000151F0000EF
:10014000151F0000151F0000151F0000151F0000DF
:10015000151F0000151F0000151F0000151F0000CF
:10016000151F00006D230000151F0000151F000063
:10017000151F0000151F0000151F0000151F0000AF
:10018000151F0000151F0000151F0000151F00009F
:10019000151F0000151F0000151F0000151F00008F
:1001A000151F0000151F0000151F0000151F00007F
:1001B000151F0000151F0000151F0000574B4CF2C3
:1001C000205210B51A804DF628121A8000BF00BFC9
:1001D00001F0A4FE524B4FF010621A60514A9A602F
:1001E000514ADA60A3F53043203B1A6812F480725A
:1001F00004D14E490A604FF4A8521A604C4B1A7849
:10020000110703D51A7842F008021A70494B4A4C7C
:100210004A482A221A704A4A00239918A14203D256
:10022000195899500433F8E7464B474900228B424E
:1002300002D243F8042BFAE74448454900235A58B0
:100240001A500433B3F5DE7FF9D1424B424A802184
:1002500003F8011B9342FBD1404B3C4A1A60404BD0
:100260008A221A70A3F5805324225A70A0221A7091
:100270009A799207FCD59A79D406FCD4394A9379B5
:1002800003F00C03082B374BF9D103221A714622D5
:100290005A719A799006FCD5324A9179314B4906C8
:1002A000FBD5314A4FF08271116009215160202243
:1002B0001A709A7902F00C020C2AFAD12B4B2C4AB4
:1002C0001A602C4B2C4A1A6000225A60072243F80D
:1002D000042C2A4AC3F80C2D62B601F003FF134B1D
:1002E0001B68DA0705D5264801F0A0FE254B264AF3
:1002F0001A60264B1B785B0609D5224C224A2368DC
:10030000934204D11E4801F091FE0023236002F0C5
:10031000C5FD01F009FE00F0A9F8FEE70E2005403A
:1003200030800440823F04000100002B14D00340C1
:1003300002D0074000E00740B08DFF1F38330000B7
:100340008088FF1FB08DFF1FB090FF1F0082FF1F2E
:100350000000000000E400E05FE400E008ED00E0E1
:1003600000500640004006404480044004800440A1
:10037000C010050014E000E0BFD401000000202000
:1003800020BD40631CE00340A5C3945A00F0074021
:10039000FFFFFFFFFFFFFFFFFFFFFFFFFFFFFFFF6D
:1003A000FFFFFFFFFFFFFFFFFFFFFFFFFFFFFFFF5D
:1003B000FFFFFFFFFFFFFFFFFFFFFFFFFFFFFFFF4D
:1003C000FFFFFFFFFFFFFFFFFFFFFFFFFFFFFFFF3D
:1003D000FFFFFFFFFFFFFFFFFFFFFFFFFFFFFFFF2D
:1003E000FFFFFFFFFFFFFFFFFFFFFFFFFFFFFFFF1D
:1003F000FFFFFFFFFFFFFFFFFFFFFFFFFFFFFFFF0D
:10040000FFFFFFFFFFFFFFFFFFFFFFFFDEF9FFFF23
:1004100010B5054C237833B9044B13B10448AFF33E
:1004200000800123237010BDB08DFF1F000000006D
:100430003833000008B5064B1BB106480649AFF338
:1004400000800648036813B1054B03B1984708BD07
:100450000000000038330000B48DFF1FB08DFF1F77
:1004600000000000704700BF704700BF08B5FFF7ED
:10047000F9FFFFF7F9FF00F001F8FAE710B5154CA6
:10048000237803B110BD0123237001F053FA58B94A
:1004900000F0AEFA70B900F059FE88B901F028F901
:1004A000A0B90023237010BD01F0F8FC00F0A0FA01
:1004B0000028F0D001F0BAFB00F048FE0028EDD093
:1004C00001F040FC01F014F90028EAD001F0C6FC6C
:1004D000E7E700BFCC8DFF1F2DE9F84F204B1B68CD
:1004E00083460BB101221A70DFF888801D4D98F801
:1004F00000401D4F1D4E01343F2C8ABF4FF00009B4
:100500005FFA84F94C46AA462B78A34215D101F034
:100510000DFD40281FDC33791B06F5D59AF8003015
:1005200001333F2B86BF00221346DAB2FB5CDBB2FD
:10053000F3712A702B78A342E9D00D490B4B5FFA77
:100540008BFB07F804B00120BC22087088F80090EB
:10055000DA70BDE8F88FFF28D6DDFFF78FFFD3E70D
:10056000608EFF1F5D8EFF1FD88DFF1F00A006400D
:100570005C8EFF1F648EFF1F2C4B2D4AD3F800C0EA
:100580002C492DE9F0074CF4806CC3F800C02A4FC9
:100590002A4E2B4D2B4C127800233B7033702B705E
:1005A00023700B70002A3BD0152A2CD0264B1B78C9
:1005B000012B30D0052B03D1244B4FF451721A601C
:1005C000234B244D2449C0F3443AC0F34719042275
:1005D0004FF002083C27402600F01F004FF0880C27
:1005E00083F800A04FF4005483F8019098729A7039
:1005F00083F813805A7583F810C0DF702E700C607A
:10060000BDE8F0077047154B40F213321A600E4BED
:100610001B78012BCED1124B4FF451721A60CFE7E9
:10062000104B40F213321A60C0E700BF3480044020
:10063000188EFF1F5C8EFF1FD48DFF1FD58DFF1FEF
:10064000648EFF1F5D8EFF1F8088FF1F1CC004404B
:1006500000A006402DE400E004E100E018C00440E2
:1006600044A0044040A00440144B9B7800F00302D7
:1006700003F0EC03134300F00F0142070F4A48BF99
:1006800043F010030429937013D00C4B5A790B4B91
:1006900002F0EF02C10648BF42F010025A719B7986
:1006A000820603F0EF03054A48BF43F0100393713D
:1006B0007047937943F040039371E6E700A006404A
:1006C000144B1B685B052DE9F0411FD5124C2378B4
:1006D00023B1FFF7D3FE2378002BFAD1DFF854C003
:1006E0000E4F0F4E0F4D104C1048114900234FF480
:1006F0000058CCF8008040F20312FB7032602A6090
:10070000226803700B701AB101231370BDE8F081E9
:10071000BDE8F081348004405C8EFF1F00A00640DD
:1007200040A0044044A00440D08DFF1FD48DFF1F83
:10073000D58DFF1F84E100E00A4A38B505461378DD
:1007400003F0FF04002BFAD12846012101F086FCBA
:100750002846214601F07CFC034A044B52F8352020
:100760001A6038BD5C8EFF1F88310000608EFF1F4D
:1007700010B409B140F08000164B1A78904214D0A2
:10078000154C246864050FD502F07F02012A1DD0A4
:10079000052A12D0002900F07F020CBF44216021FD
:1007A000012A0ED0052A03D018705DF8044B70475B
:1007B0000A4A41F440711160F6E7084A00241460C7
:1007C000E8E7074A41F440711160EDE7044A00246C
:1007D0001460DFE78088FF1F348004401CC00440A1
:1007E00044A00440104B1A7890420AD00F4909687F
:1007F000490505D5AAB1152A09D068B1152801D037
:10080000187070470A4A40F213311160F8E7084A3D
:10081000002111600028F1D1064A40F21331116025
:10082000EEE704490A60E8E7188EFF1F34800440B1
:1008300018C0044040A004400D4B1B6813F48063B3
:1008400010B505D0212805D90A4B0020186010BD2D
:10085000184610BD084B074C53F830302360012177
:1008600001F0FCFB236800221A70012010BD00BFBC
:1008700034800440D08DFF1F883100000F4B1B686F
:1008800013F4806308D0122808D0142811D00C4B20
:100890005A7B02F0FE025A7300207047094B40F267
:1008A00002321A60064B5A7B42F001025A73012051
:1008B0007047054B40F202321A60F3E7348004407F
:1008C00000A006400CA0044014C00440034B1B6869
:1008D0005B0501D5FFF700BE704700BF34800440C0
:1008E0002DE9F04F2C4B1B685A0583B0074650D5B5
:1008F0002A4B1B680BB101221A7079188F420191A3
:1009000044D2DFF8A8A0264DDFF8A4B0DFF8989015
:100910000BE017F8013B234A0BF806300123137054
:10092000019B8AF800809F4230D09AF800602C78B2
:1009300001363F2E84BF4FF000084646E4B298BF10
:100940005FFA86F8B442E4D1BC2389F8033006E0AC
:1009500099F804301B060BD42B789C42D9D101F0B6
:10096000E5FA4028F4DDFF28F6DDFFF787FDF3E721
:100970002B7801333F2B86BF00221346DAB21BF8D7
:100980000330DBB289F807302A70E5E7064BBC225A
:10099000DA7003B0BDE8F08F34800440608EFF1F32
:1009A0005D8EFF1F5C8EFF1F00A00640648EFF1F40
:1009B000D88DFF1F10B5044C237823B1FFF75EFDDF
:1009C0002378002BFAD110BD5C8EFF1F064B074A1F
:1009D0001B781278DBB2D2B293422CBF3F3202F1C5
:1009E000FF32D01A704700BF648EFF1F5D8EFF1F5D
:1009F000054A064B10781B78C0B2DBB2984238BF6C
:100A00004030C01A704700BFD48DFF1FD58DFF1F27
:100A100030B4144B14491A780B78D2B2DBB29A4234
:100A20001DD001333F2B114810D8114CC05C2468F5
:100A3000DDB2C0B20D703CB19A4238BF4032D31A19
:100A40001A2B01DC0023237030BC7047084B007860
:100A50001C680023C0B20B70002CF0D1F4E74FF0FB
:100A6000FF30F1E7D48DFF1FD58DFF1F1C8EFF1FB8
:100A7000D08DFF1F084A094B12781B78DBB29A42CF
:100A800007D00133402B28BF0023054AD05CC0B2F9
:100A900070474FF0FF307047D48DFF1FD58DFF1F7B
:100AA0001C8EFF1F0D4B1B685B0530B414D50C4B1F
:100AB0000C49DD780C480D4A402405F0CB05DD706B
:100AC0005C74DC7844F03404DC7009780368C9B2E3
:100AD00011700BB100221A7030BC70473480044092
:100AE00000A00640D58DFF1FD08DFF1FD48DFF1FA6
:100AF000F0B4394B1A7912F0300F2DD072B6997DBF
:100B000001F0FF0200293ED062B6344F34483978F4
:100B10000478344E1D46C9B2E4B24B1C402BE87930
:100B200028BF0023A34202F1FF32C0B21CBFF05421
:100B3000194612F0FF02F0D12B4B1B68CAB23A7073
:100B400053B1A14236BFC4F14004C4EB01010919FD
:100B50002729C4BF01221A701F49CA78D2B21506CC
:100B600016D452060DD51C4B1B795B0609D51F4BBD
:100B70001F491B6800220A7003B11A70164B3C22F1
:100B8000DA70F0BC70474022D9795A7462B6E3E754
:100B90000B791C06E5D5174B174E1C783378E4B259
:100BA000DBB29C420ED0154D01E0A3420AD00133C6
:100BB000402B28BF00230879E85CC0B2C871087DCB
:100BC0000728F2D9DBB2044933700B79180644BF09
:100BD0007C23CB70C5E700BF00A00640D48DFF1F6B
:100BE000D58DFF1F1C8EFF1FD08DFF1F608EFF1F36
:100BF0005C8EFF1F648EFF1F5D8EFF1FD88DFF1F51
:100C00002C4B2D4AD3F800C02C492DE9F0074CF4A9
:100C1000006CC3F800C01278294F2A4E2A4D2B4C85
:100C20000023092A3B7033702B7023700B703BD06C
:100C30001A2A2CD0264B1B780A2B30D01F2B03D11D
:100C4000244B4FF451721A60234B244D2449C0F3B6
:100C5000443AC0F3471904224FF002083C274026CB
:100C600000F01F004FF0880C83F800A04FF4004400
:100C700083F8019098729A7083F813805A7583F8FC
:100C800010C0DF702E700C60BDE8F0077047154B88
:100C900040F213321A600E4B1B780A2BCED1124B46
:100CA0004FF451721A60CFE7104B40F213321A60C2
:100CB000C0E700BF348004408188FF1F6C8EFF1F97
:100CC000D88EFF1F6D8EFF1FE08EFF1FD98EFF1F76
:100CD0008288FF1F00D0044000B006402FE400E0EF
:100CE00004E100E004D0044010B004400CB0044023
:100CF000144B9B7800F0030203F0EC03134300F065
:100D00000F0142070F4A48BF43F0100304299370B4
:100D100013D00C4B5A790B4B02F0EF02C10648BFBF
:100D200042F010025A719B79820603F0EF03054AE4
:100D300048BF43F0100393717047937943F0400329
:100D40009371E6E700B00640214B1B681B0510B508
:100D50002ED5204C237823B1FFF790FB2378002B6E
:100D6000FAD11D481D4A1E4B4FF400440021046077
:100D7000D1701B78092B1CD01A2B03D1194B40F2D0
:100D800003121A60184B1B7803F07F030A2B1AD04A
:100D90001F2B03D1154B40F203121A60144B154858
:100DA00015491A68002303700B700AB101231370F0
:100DB00010BD124B40F203121A600B4B1B7803F06C
:100DC0007F030A2BE4D10E4B40F203121A60E5E7D1
:100DD000348004406C8EFF1F84E100E000B00640C8
:100DE0008188FF1F04D004408288FF1F00D0044088
:100DF000688EFF1FD88EFF1F6D8EFF1F0CB0044042
:100E000010B004400A4A38B50546137803F0FF04D1
:100E1000002BFAD12846012101F020F9284621466D
:100E200001F016F9034A044B52F835201A6038BD18
:100E30006C8EFF1F88310000DC8EFF1F10B409B1DB
:100E400040F08000164B1A78904214D0154C24685C
:100E500024050FD502F07F020A2A1DD01F2A12D0C6
:100E6000002900F07F020CBF442160210A2A0ED025
:100E70001F2A03D018705DF8044B70470A4A41F4EA
:100E800040711160F6E7084A00241460E8E7074A59
:100E900041F440711160EDE7044A00241460DFE77B
:100EA0008288FF1F3480044000D0044010B004400A
:100EB000124B1A7890420CD011490968090507D5E0
:100EC000092A16D01A2A0AD009280DD01A2801D0CA
:100ED000187070470B4A40F213311160F8E7094A65
:100EE000002109281160F1D1074A40F21331116045
:100EF000EEE7054A00211160E6E700BF8188FF1F89
:100F00003480044004D004400CB004400D4B1B68F6
:100F100013F4006310B505D0212805D90A4B002031
:100F2000186010BD184610BD084B074C53F8303000
:100F30002360012101F092F8236800221A70012039
:100F400010BD00BF34800440688EFF1F8831000050
:100F50000C4B1B6813F4006306D0172806D00A4B0D
:100F60005A7B02F0FE025A7300207047074A064B74
:100F700040F2023111605A7B42F001025A730120A3
:100F8000704700BF3480044000B0064008B0044001
:100F90002DE9F84F224B1B681A05814639D5214BA4
:100FA0001B680BB101221A70DFF88C801E4D98F877
:100FB00000401E4F1E4E0134272C8ABF4FF0000AFE
:100FC0005FFA84FA5446AB462B789C4215D100F068
:100FD000ADFF40281FDC33791B06F5D59BF80030A8
:100FE0000133272B86BF00221346DAB2FB5CDBB24B
:100FF000F3712A702B789C42E9D00E490C4B5FFAB2
:1010000089F90120BC2207F80490087088F800A034
:10101000DA70BDE8F88FFF28D6DDFFF72FFAD3E7A7
:1010200034800440DC8EFF1FD98EFF1F708EFF1F9F
:1010300000B006406C8EFF1FE08EFF1F2DE9F04FC1
:101040002C4B1B681A0583B0074650D52A4B1B68EA
:101050000BB101221A7079188F42019144D2DFF846
:10106000A8A0264DDFF8A4B0DFF898900BE017F8A1
:10107000013B234A0BF8063001231370019B8AF8C9
:1010800000809F4230D09AF800602C780136272EDD
:1010900084BF4FF000084646E4B298BF5FFA86F876
:1010A000B442E4D1BC2389F8033006E099F8043057
:1010B0001B060BD42B789C42D9D100F037FF402877
:1010C000F4DDFF28F6DDFFF7D9F9F3E72B780133DC
:1010D000272B86BF00221346DAB21BF80330DBB29F
:1010E00089F807302A70E5E7064BBC22DA7003B0B6
:1010F000BDE8F08F34800440DC8EFF1FD98EFF1FC7
:101100006C8EFF1F00B00640E08EFF1F708EFF1F29
:1011100010B5044C237823B1FFF7B0F92378002BE6
:10112000FAD110BD6C8EFF1F064B074A1B78127850
:10113000DBB2D2B293422CBF273202F1FF32D01A77
:10114000704700BFE08EFF1FD98EFF1F054A064B78
:1011500010781B78C0B2DBB2984238BF4030C01A5A
:10116000704700BFD88EFF1F6D8EFF1F30B4144B29
:1011700014491A780B78D2B2DBB29A421DD00133EF
:101180003F2B114810D8114CC05C2468DDB2C0B2AE
:101190000D703CB19A4238BF4032D31A1A2B01DC91
:1011A0000023237030BC7047084B00781C68002374
:1011B000C0B20B70002CF0D1F4E74FF0FF30F1E734
:1011C000D88EFF1F6D8EFF1F988EFF1F688EFF1F2A
:1011D000084A094B12781B78DBB29A4207D00133D8
:1011E000402B28BF0023054AD05CC0B270474FF0A7
:1011F000FF307047D88EFF1F6D8EFF1F988EFF1F28
:101200000D4B1B681B0530B414D50C4B0C49DD7815
:101210000C480D4A402405F0CB05DD705C74DC7889
:1012200044F03404DC7009780368C9B211700BB162
:1012300000221A7030BC70473480044000B0064071
:101240006D8EFF1F688EFF1FD88EFF1FF0B4394BC5
:101250001A7912F0300F2DD072B6997D01F0FF028D
:1012600000293ED062B6344F344839780478344E81
:101270001D46C9B2E4B24B1C402BE87928BF0023BD
:10128000A34202F1FF32C0B21CBFF054194612F063
:10129000FF02F0D12B4B1B68CAB23A7053B1A14286
:1012A00036BFC4F14004C4EB010109192729C4BFAA
:1012B00001221A701F49CA78D2B2150616D45206F6
:1012C0000DD51C4B1B795B0609D51F4B1F491B68AD
:1012D00000220A7003B11A70164B3C22DA70F0BC7F
:1012E00070474022D9795A7462B6E3E70B791C063D
:1012F000E5D5174B174E1C783378E4B2DBB29C422D
:101300000ED0154D01E0A3420AD00133282B28BF8F
:1013100000230879E85CC0B2C871087D0728F2D9BB
:10132000DBB2044933700B79180644BF7C23CB70C1
:10133000C5E700BF00B00640D88EFF1F6D8EFF1FAF
:10134000988EFF1F688EFF1FDC8EFF1F6C8EFF1FA5
:10135000E08EFF1FD98EFF1F708EFF1F204ADFF81F
:101360009CC0204B20492DE9F00FD2F800B0DFF8E7
:1013700090A0DFF89090DFF890801C4F1C4E1D4D20
:101380001D4C4BF4805BC2F800B000228AF80020AC
:1013900040F2133B89F80020C0F3443A88F800205B
:1013A0004FF451798CF80020C0F347183A7000F0E0
:1013B0001F0040274FF02C0CC6F800B0C5F8009075
:1013C0004FF4003683F800A083F8018098729A7079
:1013D0001A7483F803C027700E60BDE8F00F7047E1
:1013E0003480044000C0064004E100E0E88EFF1FA6
:1013F00008C004400CC0044031E400E0558FFF1FDA
:10140000548FFF1FE98EFF1F5C8FFF1F144B9B78CB
:1014100000F0030203F0EC03134300F00F01420756
:101420000F4A48BF43F010030429937013D00C4BAC
:101430005A790B4B02F0EF02C10648BF42F010028E
:101440005A719B79820603F0EF03054A48BF43F0C7
:10145000100393717047937943F040039371E6E76B
:1014600000C00640144B1B68DB042DE9F0411FD57A
:10147000124C237823B1FFF701F82378002BFAD11F
:10148000DFF854C00E4F0F4E0F4D104C104811494D
:1014900000234FF40038CCF8008040F20312FB70B8
:1014A00032602A60226803700B701AB10123137036
:1014B000BDE8F081BDE8F08134800440E88EFF1F74
:1014C00000C0064008C004400CC00440E48EFF1F6A
:1014D000548FFF1FE98EFF1F84E100E00A4A38B5F0
:1014E0000546137803F0FF04002BFAD128460121AA
:1014F00000F0B4FD2846214600F0AAFD034A044B43
:1015000052F835201A6038BDE88EFF1F8831000080
:10151000588FFF1F10B409B140F080000F4B1A78AC
:10152000904217D00E4C2468E40412D502F07F02DA
:10153000082A02D10B4A00241460002900F07F021F
:101540000CBF44216021082A03D1064A41F44071AE
:10155000116018705DF8044B704700BF8388FF1F4F
:10156000348004400CC00440704700BF0D4B1B6822
:1015700013F4805310B505D0212805D90A4B00205B
:10158000186010BD184610BD084B074C53F830309A
:101590002360012100F062FD236800221A700120FF
:1015A00010BD00BF34800440E48EFF1F883100006E
:1015B0000C4B1B6813F4805306D00E2806D00A4B40
:1015C0005A7B02F0FE025A7300207047074A064B0E
:1015D00040F2023111605A7B42F001025A7301203D
:1015E000704700BF3480044000C0064004C004407F
:1015F0002DE9F84F224B1B68DA04814639D5214B7F
:101600001B680BB101221A70DFF88C801E4D98F810
:1016100000401E4F1E4E0134272C8ABF4FF0000A97
:101620005FFA84FA5446AB462B789C4215D100F001
:101630007DFC40281FDC33791B06F5D59BF8003074
:101640000133272B86BF00221346DAB2FB5CDBB2E4
:10165000F3712A702B789C42E9D00E490C4B5FFA4B
:1016600089F90120AC2207F80490087088F800A0DE
:10167000DA70BDE8F88FFF28D6DDFEF7FFFED3E76E
:1016800034800440588FFF1F558FFF1FEC8EFF1FC3
:1016900000C00640E88EFF1F5C8FFF1F38B505466F
:1016A00031B10C4615F8010BFFF7A2FF013CF9D14F
:1016B00038BD00BF10B5044C237823B1FEF7DEFE21
:1016C0002378002BFAD110BDE88EFF1F064B074A86
:1016D0001B781278DBB2D2B293422CBF273202F1D0
:1016E000FF32D01A704700BF5C8FFF1F558FFF1F5E
:1016F000054A064B10781B78C0B2DBB2984238BF5F
:101700004030C01A704700BF548FFF1FE98EFF1F83
:1017100030B4144B14491A780B78D2B2DBB29A4227
:101720001DD001333F2B114810D8114CC05C2468E8
:10173000DDB2C0B20D703CB19A4238BF4032D31A0C
:101740001A2B01DC0023237030BC7047084B007853
:101750001C680023C0B20B70002CF0D1F4E74FF0EE
:10176000FF30F1E7548FFF1FE98EFF1F148FFF1F1B
:10177000E48EFF1F084A094B12781B78DBB29A42AD
:1017800007D00133402B28BF0023054AD05CC0B2EC
:1017900070474FF0FF307047548FFF1FE98EFF1FD7
:1017A000148FFF1F054A064B11781B68054AC9B202
:1017B00011700BB100221A70704700BFE98EFF1F35
:1017C000E48EFF1F548FFF1F30B42B4B1A79940601
:1017D00020D52A4AD879137829490133402B097832
:1017E00028BF00239942C0B203D0264CD9B2E0549E
:1017F0001170254A116869B1244A1278D2B2934215
:1018000036BFC2F14002C2EB03039B18272BC4BFB3
:1018100001230B70184AD378DBB2180611D45A068C
:101820000DD5154B1B795B0609D5194B19491B685A
:1018300000220A7003B11A700F4B2C22DA7030BCF0
:10184000704711790906EAD51348104904780878D9
:10185000C0B284420DD0421C272A84BF0020024619
:101860000E4D054C98BFD0B2AA5CD2B2E27108709E
:10187000D5E76C21D170D2E700C00640548FFF1F1E
:10188000E98EFF1F148FFF1FE48EFF1F558FFF1F70
:10189000588FFF1FE88EFF1F5C8FFF1FEC8EFF1F0E
:1018A00070B5124E33788BB1114D286840B1438822
:1018B000C218147A6CB901F0E1F933782C602BB1BD
:1018C000022000F097FC28600028F0D14FF0FF3094
:1018D00070BD02880133934202D24380204670BD1E
:1018E00001F0CCF9002320462B6070BD9490FF1FBF
:1018F000688FFF1F70B50D4E33788BB10C4D286883
:1019000040B1438803441C7A6CB901F0B7F93378CD
:101910002C602BB1022000F06DFC28600028F0D173
:101920004FF0FF3070BD204670BD00BF9490FF1F88
:10193000688FFF1F38B5154D2868D0B104884388DB
:101940009C4211DDC218127A72B103F10802E41A46
:101950000244002302E012F8011F11B10133A34237
:10196000F9D10BB1184638BD01F088F90020286084
:1019700038BD074B1B780BB9002038BD022000F0A2
:1019800039FC28600028D9D1F6E700BF688FFF1F17
:101990009490FF1F2DE9F04F3B4D012283B00E467E
:1019A00083462A7051B3DFF8ECA0DFF8E090DFF84F
:1019B000E880DAF80010002932D0344B01934A88CD
:1019C000019BC2F14004A64238BF3446101980B2D0
:1019D00008320027361B48800A441F703CB15C4423
:1019E0001BF8010B02F8010BA345F9D148883F28E9
:1019F00009D8274905220A70002EDAD10020287064
:101A000003B0BDE8F08F4022214B0A800024012062
:101A10001C7000F067FCCAF80040002EC9D1EDE749
:101A200098F800204AB31949019145F68914012715
:101A30000BE0013C17D099F80020A2B92A70FEF7FC
:101A40001DFD2F7098F80020BAB1012000F0F0FBC6
:101A50000528EED82F7001F0F1F8CAF80000002830
:101A6000E7D00146ABE70199012200234FF0FF3098
:101A70000A702B7003B0BDE8F08F00234FF0FF30E9
:101A80002B7003B0BDE8F08F5D8FFF1F648FFF1FC9
:101A90006C8FFF1F608FFF1F9490FF1F00B583B0F6
:101AA00002AB012103F8010D1846FFF773FF03B0E5
:101AB0005DF804FB10B50D4B1B78B3B10C4C2168DD
:101AC00099B14B888BB10B4A00203F2B107004DC7E
:101AD000CA180133402B1072FAD140230B80012029
:101AE00000F000FC0023236010BD10BD9490FF1F88
:101AF000608FFF1F6C8FFF1F10B50C4B1B7803F01E
:101B0000FF008BB90A4C21684B883F2B04DCCA18B4
:101B10000133402B1072FAD140230B80012000F0DA
:101B2000E1FB0023236010BD10BD00BF5D8FFF1FD0
:101B3000608FFF1F08B50368C9B21B68984708BDCE
:101B400008B50368C9B21B68984708BD08B50368A3
:101B5000C9B21B68984708BD08B50368C9B21B68BD
:101B6000984708BD034800EB5100B0FBF1F0FEF7C9
:101B700003BD00BF001C4E0E10B5064800EB51001F
:101B80001446B0FBF1F0FEF7F7FC2046BDE810402C
:101B9000FEF76ABD001C4E0EFEF792BD0846FEF72A
:101BA000CBBD00BF0846FEF71DBE00BF084611466C
:101BB000FEF7DEBD08B50846FEF73EFE003018BF52
:101BC000012008BD08B50846FEF758FE003018BFD2
:101BD000012008BDFEF70CBFFEF74CBFFEF718BF93
:101BE000FEF7E8BEFEF75EBFFEF7F0BE08B508469A
:101BF000FEF76CFE012008BD08B50846FEF766FE3C
:101C0000012008BD10B5084614461146FEF768FECF
:101C1000204610BD38B508460D4601F067F9044668
:101C200021462846FEF75CFE204638BD704700BFBF
:101C3000044B054A1A604FF47A71002299601A71B8
:101C40001A737047708FFF1F5030000008B503688B
:101C5000C9B21B68984708BD08B50368C9B21B68BC
:101C6000984708BD08B50368C9B21B68984708BD06
:101C700008B50368C9B21B68984708BD034800EB64
:101C80005100B0FBF1F0FEF7BBBF00BF001C4E0ED1
:101C900010B5064800EB51001446B0FBF1F0FEF71A
:101CA000AFFF2046BDE81040FFF722B8001C4E0EE3
:101CB000FFF74AB80846FFF7A5B800BF0846FFF788
:101CC000F7B800BF08461146FFF7B8B808B5084690
:101CD000FFF71CF9003018BF012008BD08B5084601
:101CE000FFF736F9003018BF012008BDFFF72EBA04
:101CF000FFF76EBAFFF73ABAFFF70ABAFFF780BAF2
:101D0000FFF712BA08B50846FFF742F9012008BDEF
:101D100008B50846FFF73CF9012008BD10B5084694
:101D200014461146FFF78AF9204610BD38B508461B
:101D30000D4601F0DBF8044621462846FFF77EF900
:101D4000204638BD704700BF044B054A1A604FF467
:101D50007A71002299601A711A737047808FFF1F81
:101D6000B030000008B50368C9B21B68984708BDC9
:101D700008B50368C9B21B68984708BD08B5036871
:101D8000C9B21B68984708BD08B50368C9B21B688B
:101D9000984708BD034800EB5100B0FBF1F0FFF796
:101DA000DDBA00BF000E270710B5064800EB510052
:101DB0001446B0FBF1F0FFF7D1FA2046BDE8104021
:101DC000FFF724BB000E2707FFF74CBB0846FFF7C1
:101DD00085BB00BF0846FFF7C7BB00BF08461146DA
:101DE000FFF798BB08B50846FFF7C0FB003018BFE7
:101DF000012008BD08B50846FFF7DAFB003018BF20
:101E0000012008BDFFF774BCFFF7B4BCFFF780BC2E
:101E1000FFF750BCFFF7C6BCFFF758BC08B5084633
:101E2000FFF7E6FB012008BD08B50846FFF7E0FB19
:101E3000012008BD10B5084614461146FFF72EFCD8
:101E4000204610BD38B508460D4601F04FF804464F
:101E500021462846FFF722FC204638BD704700BFC8
:101E6000044B054A1A604FF47A71002299601A7186
:101E70001A737047908FFF1F10310000FFF75ABD93
:101E8000FFF70EBDFFF736BDFFF714BE0846FFF79C
:101E900005BE00BF08461146FFF77CBD704700BF76
:101EA000044B054A1A604FF47A71002299601A7146
:101EB0001A737047A08FFF1F70310000024B1A6821
:101EC00001321A60704700BFB08FFF1F08B5104C79
:101ED00008E0236859050DD423681A050FD4236838
:101EE000DB0411D423685803F3D500F03FFA2368CC
:101EF0005905F1D5FEF7FCFD23681A05EFD5FFF76C
:101F0000A5F92368DB04EDD5FFF75EFCEAE700BF27
:101F10003480044008B5FFF7D9FF00BF014B102201
:101F20001A80704700200540704700BFEFF3138010
:101F300070B9EFF310836BB9EFF305825AB94FF420
:101F40008070EFF311822AB1824238BF1046704789
:101F50004FF0FF3070470F2A01D81846F1E7014BC8
:101F6000D05CEEE7F0E300E010B4114B53F8302002
:101F700092F8804234B1012379B182F880305DF863
:101F8000044B704703EBC0035B681A6851B922F039
:101F900002021A605DF8044B704782F800315DF868
:101FA000044B704742F003021A605DF8044B70471F
:101FB000883100001C4B03EBC0020129526811D08C
:101FC00004291BD053F83000002380F8803229B157
:101FD000022920D0032922D0136070474FF4807368
:101FE0001360704753F830004FF4A27380F88012EA
:101FF0001360136823F020031360704753F8301008
:102000004FF4A273012081F880021360136843F03B
:1020100020031360704740F20313136070474FF4BE
:1020200081731360704700BF8831000030B4054BE6
:10203000054C0649002210251A60226008601D60C8
:1020400030BC704714D0034004D0034000D003409C
:10205000212801D8FFF788BF704700BF212801D889
:10206000FFF7A8BF704700BF72B60C4B0C4A0D4972
:102070001B681268096862B6490102D5322B88BF15
:1020800001320949C3F5EA33BF33A1FB03039B09BE
:102090004FF47A7000FB0230704700BF18E000E098
:1020A000B08FFF1F04ED00E08988888838B50546A9
:1020B000FFF7DAFF04469DB1FFF7D6FF001BB0F52E
:1020C0007A7F09D3013D0AD0FFF7CEFF04F57A7479
:1020D000001BB0F57A7FF5D2FEF7D0F9ECE738BDFA
:1020E00038BD00BF2DE9F84F354BDFF8F4A0354A75
:1020F000DFF8F0E0DFF8F080DFF8F0C0324F334E69
:10210000334D344C34483549DFF8E4904FF4000B3C
:10211000C3F800B04FF0807BC3F800B04FF0007BF5
:10212000C3F800B04FF0806BC3F800B04FF0006B05
:10213000C3F800B00023CAF800304EF6FF7AC2F8A8
:1021400000A02822C8F80020CCF80020CEF80020FB
:102150003A60326007F5FF272A6006F5FF26226005
:1021600005F5FF25026004F5FF24092008600CF541
:10217000805CC9F8003001F50021C8F8FCAF07F514
:10218000FC6706F2DC7605F5FB6504F5FB6408F6F2
:10219000FC78C8F80420CCF80020CEF8E40F3B60AF
:1021A000C6F800A02A602260086000F0A5FD4FF488
:1021B000C870FFF77BFFBDE8F84F00F0D7BC00BF49
:1021C00008E100E008800340248003402C800340A5
:1021D000348003403C80034044800340008003403F
:1021E000048003401C8003400C80034014800340A3
:1021F00004900340431E032B70B411D872B60A4AF0
:1022000052F8230048B10949058831F81360446841
:1022100042F82340721B21F8132062B670BC70474D
:10222000002070BC704700BF0C90FF1FA890FF1FDC
:10223000013803280BD872B6074B53F8203043B14E
:1022400000205B680130002BFBD162B67047002094
:1022500070471846F9E700BF6090FF1FF0B472B6F0
:102260001B4D1C4E0123E9189A0011F8011C194F4F
:10227000090742F0010405D556F8321061B156F84D
:102280003420BAB10133052BEDD162B6124B0022D6
:102290001A70F0BC00F0F2BC0F49104C0D7807EB3F
:1022A00043130830013D58600D7047F8324062B664
:1022B000F0BC7047084B0A4A197807EBC405083090
:1022C00001396860197047F8342062B6F0E700BF42
:1022D000983200000080FF1F8990FF1F8800400097
:1022E000C8004000431E032B30B418D81B4A4001DD
:1022F00040F01000104472B6194CE25C032A03D877
:10230000DFE802F022240F1F164A52F8230000B320
:10231000154A52F82300416042F8231062B630BCDF
:10232000704705220D88E25410F0080F0CBF882377
:10233000C82343EA054308310360416062B630BCFC
:10234000704708300422EDE70322EBE70830022251
:10235000E8E742F82310044ADEE700BF0080FF1FD1
:102360009890FF1F6090FF1F7090FF1F2DE9F04FA6
:10237000DFF810B3DFF810A387B043E0AC4F4FEAAB
:10238000930807EBC809013ED9F8042003F00803BD
:10239000F6B2A2F1080003F0FF01002B40F000812B
:1023A00057F838301B0C22F8083C002B00F0EF8067
:1023B000A04C22F8061C42F8041C54F82620002ADF
:1023C00000F0E2819C4C54F8262050609B4A44F86F
:1023D000260032F816100B4422F8163000F02EFCBE
:1023E000002800F0CA81964A964B19F0080F00F1B8
:1023F000080008BF1346C9F8040047F8383008231E
:102400008BF800309BF80040E4B261071CD58E4B7E
:102410001B78B3B18D4A137803F0FF0123B14B1E33
:10242000DBB2137003B900BE894A137803F0FF01D1
:102430002BB14B1EDBB21370002B00F0698100F052
:1024400043FC04238BF8003004F0080303F0FF0280
:10245000002B00F0C9809AF80030DBB21E098DD144
:102460009A08DFF8CC9159F8321009EBC200C1F399
:102470008301013940680C2900F28580DFE801F012
:102480007A7A838383838383428383830700076805
:10249000704D41686B4B49F83230DFF8F0816E4E79
:1024A000696040F28162B9B20024012091422F603C
:1024B000C8F80040C9F81040C9F81840307000F260
:1024C000E780B1F5D06F80F01882B1F5817F00F020
:1024D000FF8100F27781802900F02C82822940F070
:1024E000E381AF88042F00F2DF815C495C4ABF00C2
:1024F00039441470547009788C0740F104831070CB
:10250000022082E1DFF88481D8F8000038B3554F0B
:1025100055493C88504E0D7896F800C0402C34BF89
:1025200022464022A41AA4B2BCF1000F3C8085F0E0
:10253000010745F002050F7009EBC5070CBF8821A4
:10254000C8218CF0010C41EA0241786086F800C095
:1025500049F83510002C67D08418C8F800403D4B6E
:102560001A88B2F5A06F0ED100219A7859703F4BAE
:102570001A7008E037493E4D0C68AC4200F0978075
:10258000304949F832103B4901230B7037E72C4A98
:102590002C4B19F0080F08BF134647F838302EE7C8
:1025A00000F06CFB344A354D52F82630002B00F019
:1025B000EF805968A85D42F8261003F10802C9F8B7
:1025C0000420032805D8DFE800F0022C2926032286
:1025D000AA551A8819F0080F0CBF8823C82343EAAC
:1025E000024347F838300AE7E00700F194802106FB
:1025F00000F1DE80A20706D5214B224A187802217D
:10260000C0B218701170E30602D51E4B10221A706A
:1026100007B0BDE8F08F0422AA55DAE70522AA55D3
:10262000D7E70222AA55D4E7402A96D194E700BF03
:102630000080FF1F0C90FF1FB88FFF1FA890FF1F87
:1026400088004000C80040009490FF1F1D90FF1FAD
:102650006C8FFF1F8090FF1F1C90FF1FC020074042
:102660008C90FF1FC88FFF1F8890FF1F9820074086
:1026700021090003942007406090FF1F9890FF1FDE
:10268000882007408020074090200740B48FFF1F1C
:10269000B1F5106F00F0538140F2B08040F6211286
:1026A000914240F02682B64901230B706BE74C68DB
:1026B000B4498C427FF464AF0178A9297FF460AFFC
:1026C000417845297FF45CAF8178C2297FF458AF07
:1026D000C1786B297FF454AFAB49AC4E0D78347898
:1026E000AB4F45F0020009EBC00C85F00105002C52
:1026F0000D704FF00001CCF804100CBF8821C821E8
:1027000084F0010449F8301005213470397037E73E
:10271000FFF7F2F993E69F4B99489B49DFF890A2A7
:102720001A614FF0020B80F800B09B4C0A704FF01A
:102730000D0B1C609C609A61DFF898928AF800B0DB
:10274000DFF870C2954F964E964DDFF88C82DFF819
:102750008CB2FF219F244FF0010A89F80010C3F8C2
:1027600004808CF80010C3F80CB03A7031702C70F3
:1027700080F800A007B0BDE8F08F8B4B47F8380019
:102780001A7801321A703AE644F82600874C1DE6A2
:10279000AB5D032B00F2958001A151F823F000BF3F
:1027A000FF230000FF230000F7270000F1270000AF
:1027B0007F49804B80220D2008701A70A2077FF598
:1027C00022AF19E740F20232914269D1AA8802F0A1
:1027D0007F02042A68DC6C88002C65D1744905905E
:1027E00092001144A4460A7842F002020A7048E1BD
:1027F0000123AB5503E60023AB5500E6B1F5086FA6
:1028000052D16D496D4A09781170B5F806C08445FA
:1028100080F08C815C490C7844F0020709EBC7001A
:10282000BCF1400F34BF6546402542602A44049203
:102830002B040122C5EB0C0003934FF0000C059212
:102840000190C823039A86F800C0134384F0010264
:1028500049F837300A7058BB402D7FF424AF00048C
:10286000002542F00202059B3370BCF1000F09EB1A
:10287000C2070CBF4FF0880C4FF0C80C0C70019BC6
:10288000049979604CEA0000194449F8320015B9FE
:10289000402B7FF408AF4A4BC8F800101D8002E7B8
:1028A000B1F5A06F00F02A81414A0F231370FAE6B8
:1028B0004028D4D94023A0F1400501934FF4800073
:1028C000CFE719F0080F0CBF02230323AB5596E5A1
:1028D000AA8802F07F02042A0BDC6C884CB93449C8
:1028E000059092001144A4460A7822F002020A7070
:1028F000C7E02F490F230B70D5E632484268002A03
:10290000F7D06F88B5F804C000F10C0104E002694B
:102910000C310C30002AECD031F80C3CBB42F6D123
:1029200031F80A3C6345F2D13F0A032F0CBF1078FF
:1029300000896AE7214A02201470547065E71E4A34
:10294000144CA978117004F1800502E00834AC42FF
:1029500007D0236A1A06F9D5606A083800F08EF9A4
:10296000F4E71949114C194DCDF814800023039652
:102970001F4688461E4604941549885988BB35E091
:1029800094200740010004008890FF1F1C90FF1F47
:102990001D90FF1F0080FF1F880040009820074007
:1029A0008C200740842007408990FF1FB88FFF1FAD
:1029B000C0200740802007409490FF1F8C90FF1F8D
:1029C000C88FFF1F9C320000A690FF1F9890FF1F2A
:1029D0000C90FF1F88200740CC8FFF1F2090FF1F07
:1029E0002046446800F04AF9002CF9D1564A57496C
:1029F0009059049A00238B51935108B905E0204661
:102A0000446800F03BF9002CF9D14F4AEB5D0021FE
:102A100091514F4A28F8021F023B9151032B06D8CF
:102A2000DFE803F0420242024FF00103EB550436A7
:102A3000102E07F101079FD1464B4749039EDDF851
:102A40001480DFF824C1049600270F7001241E466D
:102A50000CEB0402A50012F8012C06F8042B130756
:102A600026D445F00202013445F00305052C49F84F
:102A7000327049F83570EBD1049E3178059181F0C0
:102A8000010C0020049003900546024633490C785F
:102A900044F0020709EBC7035A60059A002A7FF445
:102AA000CFAE01908823CDE64FF00002EA55BEE795
:102AB000CDF808C000F0C2F809EB441200F108019B
:102AC000DDF808C050B35160254A49F83520CDF8EB
:102AD00008C000F0B3F845F0010209EBC20100F1B3
:102AE0000803DDF808C080B14B601E4949F8321078
:102AF000B7E740F6212291427FF4D6AE01224FF093
:102B0000000C0592BDE702207FE6134B1A7845F0D2
:102B10000101013249F831001A70A2E70E4B1A7810
:102B2000A500013249F835001A70D0E7402834BFBB
:102B3000054640252B04039351190123401B0491A2
:102B40004FF0000C0593A1E76090FF1F0C90FF1F52
:102B50007090FF1FC42007408990FF1F8890FF1FBF
:102B600088004000C8004000983200002DE9F84F6E
:102B700000F032F9234C00210846631860500831F8
:102B8000882958604FF000021E4BF6D11E49DFF82D
:102B90009CA0D1F800B0DFF89890DFF89880DFF8BB
:102BA00098C01A4F1A4E1B4D1B4C1C484BF4802BDF
:102BB000C1F800B0C3F307218AF80010C3F307413E
:102BC00089F800101B0EFF2188F800308CF80010E7
:102BD0003970317012494FF0010985F800900A7080
:102BE000104A114982F800904FF070084FF40073BA
:102BF0004FF0100C81F80080236080F800C0BDE821
:102C0000F88F00BF0080FF1F3480044088200740F9
:102C1000102007409420074008E100E00821074009
:102C2000002107408420074049E400E09C20074041
:102C3000B0200740B42007408020074072B60D4AFC
:102C40001168B1FA81F30F2B10D84FF00040D84033
:102C500021EA0001116062B6074803EBC303DB0001
:102C6000C2180021C15010465160704762B6002062
:102C7000704700BF8488FF1F0084FF1F0D4B0E4A62
:102C8000C31AA2FB03131B090F2B0CD80B4A127893
:102C900052B972B60A4A4FF00040116820FA03F3A5
:102CA0001943116062B67047064A1278002AF0D0C4
:102CB000FFF7D4BA0084FF1F398EE3388990FF1FD5
:102CC0008488FF1F9490FF1F10B5094B1B7823B910
:102CD000084C216809B14B8803B910BD9B000B80DB
:102CE0000320FFF7FFFAFFF7A9FF206010BD00BF28
:102CF0009C90FF1FA090FF1F30B42948294A2A4BFF
:102D00002A4D6024E121047011701B78284C082B97
:102D100030D00A2B2748284937D00C2B0CBF35223E
:102D20005D2212232A60236002600B60234B24493A
:102D30001B78244ABBB101230B601360224B23494B
:102D40001B78234A012B26D9042B0FD9082B1ED917
:102D5000102B94BF862387230B6013601D4B012229
:102D60001A7030BC70470B601360E7E784230B6078
:102D70001360F3E700F58E200F490830212213235A
:102D80002A60236002600B60D0E73922F7E78523D1
:102D90000B601360E2E780230B601360DEE700BF87
:102DA00000400740014007408888FF1F08B00340EB
:102DB0000CB0034008B00B400CB00B40A590FF1FB7
:102DC00020B0034020B00B408988FF1F24B003408F
:102DD00024B00B40A490FF1F70B584B072B6184B9E
:102DE000184D1948702241260F2480211A702E7028
:102DF0001A460470197013781B06FCD5134B18681B
:102E000062B6134B984298BF00EB800001AC21469C
:102E100098BF40000A2200F01FF80E490023084620
:102E2000E25C01333AB10A2B20F8022FF8D11623C5
:102E30000B7004B070BD5B00DBB20B7004B070BDF2
:102E40000000024007000240060002400800024065
:102E50007F9698006C89FF1F10B4002300E00133B7
:102E6000B0FBF2F402FB1400092894BF3030373075
:102E7000C0B2C8542046002CF1D1CA18547043B1D6
:102E80002246885CCC5C8C54C8540132013B9A4287
:102E9000F7DB08465DF8044B704700BF70B50F4E76
:102EA0000F4D761BB61007D0043D0024013455F8B1
:102EB000043F9847A642F9D10A4E0B4D761B00F00D
:102EC00027FAB61008D0043D0024013455F8043F19
:102ED0009847A642F9D170BD70BD00BF1C330000F9
:102EE0001C330000343300001C33000020F00301C9
:102EF00010F00300C0F1000051F8043B00F1040C95
:102F00004FEACC0C6FF000021CBF22FA0CF2134304
:102F10004FF0010C4CEA0C2C4CEA0C4CA3EB0C02CD
:102F200022EA030212EACC1204BF51F8043B043037
:102F3000F4D013F0FF0F1FBF013013F47F4F0130A7
:102F400013F47F0F18BF0130704700BF024B13B15D
:102F5000024800F005B87047000000006D2F000027
:102F6000014600200246034600F018B838B5094D66
:102F7000094C641BA41018BF05EB840505D0013C67
:102F800055F8043D9847002CF9D1BDE8384000F0D1
:102F9000D1B900BF0000000000000000F0B5274CD0
:102FA0002668D6F8484185B00746002C41D06568B0
:102FB0001F2D1EDD224818B94FF0FF3005B0F0BDBF
:102FC0004FF4C870039102920193AFF3008003990C
:102FD000029A019B04460028EED0D6F8485125609D
:102FE000002060600546C6F84841C4F88801C4F86E
:102FF0008C013FB9AB1C00200135656044F82310FB
:1030000005B0F0BD04EB85004FF0010CC0F888203E
:10301000D4F888610CFA05F21643022FC4F88861CF
:10302000C0F80831E6D1D4F88C311A43C4F88C21A9
:10303000E0E706F5A674C6F84841B8E70C3300008F
:1030400000000000FFFFFFFF000000000000000084
:10305000ED1B0000051C0000D51B0000DD1B00005F
:10306000D91B0000E11B0000651B0000791B00005C
:10307000991B00009D1B0000A51B0000AD1B00005C
:10308000B51B0000C51B0000E51B0000E91B00008C
:10309000351B0000411B00004D1B0000591B0000A8
:1030A000151C0000F91B00000000000000000000DB
:1030B000051D00001D1D0000ED1C0000F51C00009A
:1030C000F11C0000F91C00007D1C0000911C000098
:1030D000B11C0000B51C0000BD1C0000C51C000098
:1030E000CD1C0000DD1C0000FD1C0000011D0000C7
:1030F0004D1C0000591C0000651C0000711C0000E4
:103100002D1D0000111D0000000000000000000047
:103110001D1E0000351E0000051E00000D1E0000D3
:10312000091E0000111E0000951D0000A91D0000D1
:10313000C91D0000CD1D0000D51D0000DD1D0000D3
:10314000E51D0000F51D0000151E0000191E000001
:10315000651D0000711D00007D1D0000891D00001F
:10316000451E0000291E00000000000000000000B5
:103170008D1E0000951E00007D1E0000811E0000B7
:10318000851E0000891E00004008FE4340A0044048
:103190004408FE4344A004400018FE4300C004401D
:1031A0003000FE43309004403400FE43349004402D
:1031B0001C18FE431CC004401018FE4310C00440FD
:1031C0000818FE4308C004400C18FE430CC004401D
:1031D0000C10FE430CB004401010FE4310B004402D
:1031E0001810FE4318B004401C10FE431CB00440ED
:1031F0001410FE4314B004400418FE4304C00440FD
:103200000010FE4300B004400008FE4300A004404C
:103210000408FE4304A004400C08FE430CA0044034
:103220000808FE4308A004401418FE4314C00440DC
:103230001818FE4318C004400410FE4304B00440B4
:103240000810FE4308B004401400FE4314900440EC
:103250004C08FE434CA004400420FE4304D004402C
:103260002410FE4324B004402010FE4320B004404C
:103270002810FE4328B004402C10FE432CB004401C
:103280000020FE4300D004404808FE4348A004400C
:103290001000FE431090044015191519000100009C
:1032A0008C88FF1F1200000000020000B888FF1F7A
:1032B00073000000002201002C89FF1F2100000084
:1032C000002101001489FF1F090000000003000015
:1032D0006889FF1F0000000001030904A088FF1F88
:1032E00000000000020309045089FF1F00000000D5
:1032F000030309046C89FF1F0000000000000000A8
:103300000000000000000000430000008889FF1F4B
:10331000F8B500BFF8BC08BC9E4670474D2F0000B2
:1033200035040000311C0000491D0000611E000032
:04333000A11E0000DA
:04333400F8B500BF29
:1033380001090A08FFFFFFFF0A040000120101014A
:1033480000000040C01685040002010203010000CD
:1033580018035400650065006E007300790064006E
:10336800750069006E006F0009027300020100C059
:103378003209040000020103000007240100014192
:1033880000062402010100062402020200092403A7
:1033980001030102010009240302040101010009DB
:1033A800050402400000000005250101010905830C
:1033B8000240000000000525010103090401000284
:1033C80003000000092111010001222100070581E5
:1033D80003400001070502032000020006C9FF0997
:1033E80004A15C7508150026FF0095400975810247
:1033F80095200976910295040976B102C000000073
:1034080018035400650065006E0073007900200001
:103418004D00490044004900040309040C0300005E
:103428000000000000000000000000000000000094
:10343800000000000000000000000000748CFF1F66
:10344800DC8CFF1F448DFF1F0000000000000000FF
:103458000000000000000000000000000000000064
:103468000000000000000000000000000833000019
:103478000000000000000000000000000000000044
:103488000000000000000000000000000000000034
:103498000000000000000000000000000000000024
:1034A8000000000000000000000000000000000014
:1034B8000000000000000000000000000000000004
:1034C80000000000000000000000000000000000F4
:1034D80000000000000000000000000000000000E4
:1034E80001000000000000000E33CDAB34126DE681
:1034F800ECDE05000B0000000000000000000000EA
:1035080000000000000000000000000000000000B3
:1035180000000000000000000000000000000000A3
:103528000000000000000000000000000000000093
:103538000000000000000000000000000000000083
:00000001FF
